:020000040800F2
:10000000A0B30020A91100080D0A00080F0A00087B
:10001000130A0008170A00081B0A00080000000065
:100020000000000000000000000000001F0A00089F
:10003000210A000800000000230A0008250A000821
:10004000C3110008C3110008C3110008C311000840
:10005000C3110008C3110008C3110008C311000830
:10006000C3110008C3110008C3110008C311000820
:10007000C3110008C3110008C3110008C311000810
:10008000C3110008C3110008C3110008C311000800
:10009000C3110008C3110008C3110008C3110008F0
:1000A000C3110008C3110008C3110008C3110008E0
:1000B000C3110008C3110008C3110008C3110008D0
:1000C000C3110008C3110008C3110008C3110008C0
:1000D000C311000819100008C3110008C31100085B
:1000E000C3110008C3110008C3110008C3110008A0
:1000F000C3110008C3110008C3110008C311000890
:10010000C3110008C3110008C3110008C31100087F
:10011000C3110008C3110008C3110008C31100086F
:10012000C3110008C3110008C3110008C31100085F
:1001300000F002F800F04EF80AA090E8000C8244AB
:100140008344AAF10107DA4501D100F043F8AFF288
:10015000090EBAE80F0013F0010F18BFFB1A43F0A5
:1001600001031847E022000000230000103A24BFDA
:1001700078C878C1FAD8520724BF30C830C144BF0C
:1001800004680C607047000000230024002500264E
:10019000103A28BF78C1FBD8520728BF30C148BFEA
:1001A0000B607047642901F09186752901F08E86F5
:1001B000732901F08E87002070471FB502F0C4F844
:1001C00004000020002102F01BF9401C60601FBDEC
:1001D00010B510BD02F093F81146FFF7EEFF00F0E6
:1001E000A7FB02F0C3F803B4FFF7F2FF03BC00F073
:1001F000B5FE000070B504460125F3A001F0E8FD4E
:10020000F2480068F24908600846006840680860E3
:100210001FE0F0A001F0DCFDED480068002818D0D8
:10022000EDA001F0D5FDEA480068806840B1ECA07F
:1002300001F0CEFDE64800688068E549086008E006
:10024000E9A001F0C5FD2146F3A001F0C1FD0025A4
:1002500004E0DF4800680068A042DAD100BF012D49
:100260000CD1DB4800680168F5A001F0B1FDD84869
:10027000006800690168FAA001F0AAFDFEA001F083
:10028000A7FD284670BD10B51421002000F099FD8F
:10029000CE4908606520096808600020CB490968DC
:1002A0008860CA4909680861C8490968C860C749BF
:1002B00009684860142100F084FDC5490860C348FE
:1002C000006808601421002000F07BFDEC49086004
:1002D000BE480068086010BD70B5054614210020B6
:1002E00000F06FFD0446B9480068406870B9B8482E
:1002F00000684460B6480068E06025600020A060A7
:10030000B24800682061B248046029E0B048006843
:10031000C8B104E0AE4800688068AD490860AC48E8
:10032000006880680028F5D1A94800688460A84862
:100330000068E06025600020A060A54800680069B2
:100340002061A3480460A24800680168CDA001F0C4
:100350003FFD9F48006800690168CFA001F038FDAB
:1003600070BD70B50446012597A001F031FD974896
:100370000068974908601FE096A001F029FD9448A5
:100380000068002818D094A001F022FD9048006871
:10039000806840B192A001F01BFD8D480068806824
:1003A0008B49086008E0C3A001F012FD2146CDA0F2
:1003B00001F00EFD002504E0854800680068A042B9
:1003C000DAD100BFD3A001F003FD012D13D1804885
:1003D00000680168D1A001F0FBFC7D480068C0689E
:1003E0007B4909688968C8607948006880687849ED
:1003F0000968C968886070BD2DE9FF4105460E4651
:10040000174698460024CF48058047804681A0F8CB
:1004100004800020CB49C88002200881084600895A
:10042000C988C84A5289C74B9B88CDE90032CDE9BB
:100430000210C44843880288C3A1C84801F0D4FC14
:1004400000BF04E0C548005DC5490855641C142C74
:10045000F8D3C349C3A001F0BBFCC348008804B073
:10046000BDE8F0812DE9F04104460D4616462746C9
:1004700033462A4639462046FFF7BEFFBDE8F081E5
:1004800070B5044622466621B8480088FFF7EAFFA7
:1004900005460025284670BD70B5044622466621F3
:1004A000B3480088FFF7DEFF05460025284670BDEB
:1004B00070B5044622466621AD480088FFF7D2FF9A
:1004C00005460025284670BD2DE9FC470546A9A133
:1004D00003C9CDE900010024A14600260027A0465B
:1004E000A6A001F075FC2946A7A001F071FC6946A1
:1004F000284601F035FD04462146A6A001F068FC1F
:10050000204601F01FFD0646A4490E8008460188DA
:10051000A3A001F05DFC6946002001F021FD044626
:10052000204601F00FFD07469C494F800846418850
:100530009FA001F04DFC6946002001F011FD04462A
:10054000204601F0FFFC80469449A1F8048008464B
:1005500081889AA001F03CFC08E021469AA001F0B5
:1005600037FC6946002001F0FBFC0446002CF4D166
:100570008A48008896490988884218D18748808827
:10058000662805D08548808840F2574188420ED1C0
:1005900090A001F01DFC9148006840B97F4948884F
:1005A000FFF786FF8E49086001208C4908607B4870
:1005B00000886F490988884204D178488088662875
:1005C00001D00FE11BE113E16F6E650040000020D8
:1005D0004400002074776F00746865726500000045
:1005E000666F75720A0000006F7574206F66207365
:1005F000746F72616765206E6F646520616E642040
:1006000063616E6E6F742066696E64206974206F1A
:100610007574200A00000000746865206C6F7374A4
:10062000206D6964206973203A2025642D2D2D2DBD
:100630002D2D2D6661696C212121200A000000000A
:10064000676574206D69643A202025642D2D2D2D59
:100650002D2D2D2D7375636365737321210A0000A1
:1006600069747320666174686572206973203A202A
:100670002025640A0000000066697665000000001D
:1006800048000020696E73657274206D696420698A
:10069000733A202564000000696E736572742066E9
:1006A0006174686572206E6F64652069733A2025F5
:1006B000640000006F7574206F662073746F726140
:1006C0006765206E6F646520616E642063616E6E85
:1006D0006F742064656C657465206974206F75742F
:1006E000200A0000746865206D69642063616E6E85
:1006F0006F742064656C657465206973203A2025E9
:10070000642D2D2D2D2D2D2D6661696C212121202B
:100710000A000000666976650A00000064656C6581
:100720007465206E6F6465206D6964206973203A7A
:10073000202025642D2D2D2D737563636573212174
:100740000A0000006C020020202025752575257503
:10075000257525752575202000000000A8000020C3
:10076000BC000020257300001C00002004000020B5
:1007700018000020202C090A00000000546F6B654F
:100780006E733A0A000000006D657373616765203F
:1007900025530A00206F6F25736F6F0060020020E1
:1007A000636F6D6D616E643A2025640A000000007D
:1007B0006D69643A2025640A000000006469643AA7
:1007C0002025640A000000002025730A00000000B4
:1007D0001600002050494E47524551002800002085
:1007E000240000206448808840F25741884206D1A6
:1007F00062A001F0EDFA60494888FFF76DFD5E48A0
:10080000008861490988884214D160A001F0E0FAAB
:1008100059488088662804D157494888FFF73CFE2C
:1008200008E055498888FFF7E5FC18B152498888E7
:10083000FFF726FE57480068BDE8FC8710B556480C
:10084000008810B155A001F0C3FA5848006801288B
:1008500011D15748FFF738FEC821554801F086FBF3
:10086000534954A001F0B4FA00205049086055A043
:1008700001F0AEFA18E055480068012811D154483B
:10088000FFF722FEC821524801F070FB504951A0E9
:1008900001F09EFA00204D49086051A001F098FA3D
:1008A00002E051A001F094FA10BD5348408853492A
:1008B000088031484088488001208880C88070477F
:1008C00010B540F2574265214D480088FFF7CAFD38
:1008D000044647F2305000F014FB47F2305000F06D
:1008E00010FB47F2305000F00CFB47F2305000F0A4
:1008F00008FB47F2305000F004FB47F2305000F0A4
:1009000000FB47F2305000F0FCFA47F2305000F0A4
:10091000F8FA47F2305000F0F4FA47F2305000F0A5
:10092000F0FA47F2305000F0ECFA0024204610BDF7
:1009300000F0AAFA00F082FA4FF4165000F01DFB06
:10094000FFF7A1FC16E000202E4908602E49C1F8EF
:1009500094014FF4967000F0D4FA01202949086000
:1009600000202949C1F89401FFF768FFAFF28C30ED
:1009700001F02EFAE7E700006002002050494E47E0
:100980005245535000000000040000205055424CD6
:1009900049534800240000202000002077726F6E29
:1009A0006720736974756174696F6E003000002090
:1009B000D00000203F3F3F3F2573203F3F3F3F0A8D
:1009C0000000000063617365310A000034000020FC
:1009D00098010020212121212573202121210A00B5
:1009E00063617365320A0000656C73652073697416
:1009F000756174696F6E00006C0200203800002081
:100A0000160000209481214200002342704700BF5D
:100A1000FEE700BFFEE700BFFEE700BFFEE770474E
:100A200070477047704700000CB50020019000909F
:100A30006C48006840F480306A49086000BF69482B
:100A4000006800F4003000900198401C019000986C
:100A500018B90198B0F5A06FF1D16248006800F4B0
:100A6000003010B10120009001E0002000900098BB
:100A7000012843D15C48006840F010005A490860E2
:100A80000846006820F0030008600846006840F04F
:100A90000200086053484068524948600846406870
:100AA00048600846406840F48060486008464068F6
:100AB00020F47C1048600846406840F4E810486024
:100AC0000846006840F08070086000BF4548006834
:100AD00000F000700028F9D04248406820F0030080
:100AE000404948600846406840F00200486000BF46
:100AF0003C48406800F00C000828F9D10CBD10B546
:100B0000FFF792FF10BD10B53648006840F00100B5
:100B10003449086008464068344908403149486013
:100B200008460068324908402E49086008460068B7
:100B300020F4802008600846406820F4FE004860E9
:100B40004FF41F008860FFF7DAFF4FF0006029497B
:100B5000086010BD10B5002100200022214B5B6809
:100B600003F00C0121B1042906D0082928D107E09F
:100B7000214B224C236027E01F4B204C236023E0B5
:100B8000184B5B6803F47010164B5B6803F48032FB
:100B9000022303EB904022B9194B4343174C2360C7
:100BA0000DE0104B5B6803F4003323B1144B434357
:100BB000124C236003E0104B4343104C236003E0CE
:100BC0000D4B0E4C236000BF00BF064B5B68C3F3A8
:100BD00003130C4CE15C094B1B68CB40074C2360B2
:100BE00010BD000000100240002002400000FFF88D
:100BF000FFFFF6FE08ED00E000127A00540000202E
:100C000000093D005800002070B503460C4603E083
:100C100014F8015B03F8015B151EA2F10102F7D184
:100C200070BD30B5034601E003F8011B141EA2F1AC
:100C30000102F9D130BD10B504467C4951F82410A9
:100C40004A007B4951F824000021FFF7EAFF794967
:100C500051F824207649083951F824000021FFF783
:100C6000E0FF012172480830015510BD10B5014662
:100C70000023002207E06E4850F8210030F81200EF
:100C800000B15B1C521C694850F821009042F2D818
:100C900064205843654C54F82140B0FBF4F0C0B2D6
:100CA00010BD2DE9F04704460F460025A9466048CF
:100CB0000830005D20B95E4810380168204688473A
:100CC0001FB94FF0FF30BDE8F0875B4850F82400B3
:100CD000B7FBF0F086B2584850F82400B7FBF0F1AB
:100CE00000FB117008B1701C86B2504850F8240007
:100CF000451E22E04E4850F8240030F8150020B977
:100D000009F101001FFA80F901E04FF00009B14537
:100D100012D14FF0000808E0454850F8240005EBD8
:100D2000080120F8116008F10108B045F4D34248E9
:100D300050F824006843C6E76D1E002DDADA4FF044
:100D4000FF30C0E72DE9F04104460E463848083030
:100D5000005D38B9364810380168204688470120C0
:100D6000BDE8F081334850F82400B04217D932482A
:100D700050F82400B6FBF0F12D4850F8240030F86C
:100D80001120002507E00023294850F824004F19BE
:100D900020F817306D1C9542F5DB0020E0E70220BB
:100DA000DEE770B505460C4604B970BD204808382A
:100DB00050F82500261A31462846FFF7C3FF00BF2A
:100DC000F3E770B504460E4631462046FFF769FF4B
:100DD0000546681C08B9002070BD1548083850F851
:100DE00024002844F8E72DE9F04104460F46164652
:100DF00031462046FFF755FF0546681C10B9002014
:100E0000BDE8F0810A49083951F8241048193246E2
:100E10003946FFF7F9FE39462046FFF7C2FF04487E
:100E2000083850F824002844EAE700002C24000881
:100E3000780000203C2400083424000808B5012173
:100E4000482000F0EDFC2020ADF8000010208DF8C7
:100E5000030003208DF802006946094800F024FAD7
:100E60002021074800F0CDFA2020ADF800006946A7
:100E7000044800F019FA2021024800F0C2FA08BD27
:100E8000000C01400018014010B56FF0040000F0A4
:100E90007EFF2E4800682E49B0FBF1F02D49087006
:100EA0000846007800EB4001C1EBC0104FF6FF711F
:100EB00001EAC0002849088010BD0146254A127881
:100EC0004A434FF0E0235A6100229A611A461269A0
:100ED00042F001021A6100BF4FF0E022106900F0F9
:100EE00001021AB100F48032002AF5D04FF0E0225E
:100EF000126922F001024FF0E0231A6100229A6188
:100F000070470146144A12884A434FF0E0235A6161
:100F100000229A611A46126942F001021A6100BF6A
:100F20004FF0E022106900F001021AB100F48032A3
:100F3000002AF5D04FF0E022126922F001024FF0B2
:100F4000E0231A6100229A617047000054000020DB
:100F500000127A008400002086000020014600BFB5
:100F6000704700BF764A128802F04002002AF9D08A
:100F7000C2B2734B1B1D1A80704710B586B0044671
:100F8000012144F2040000F04BFC6D4800F0ACFC81
:100F90004FF40070ADF8140003208DF816001820EF
:100FA0008DF8170005A9674800F07EF94FF48060BE
:100FB000ADF8140004208DF8170005A9614800F071
:100FC00073F925208DF8000003208DF801008DF8BD
:100FD000020001208DF80300684600F08EFE0194A7
:100FE0000020ADF80800ADF80A00ADF80C00ADF82F
:100FF00010000C20ADF80E0001A9514800F0B7FC1C
:10100000012240F225514E4800F049FD01214C4893
:1010100000F039FD06B010BD70B540F225514848CA
:1010200000F022FE002870D0454800F09DFDC5B2BA
:101030004548008800F4004058BB4348008800F44D
:10104000804060B10A2D03D000203F49088020E095
:101050003D48008840F400403B49088019E00D2DD0
:1010600006D13948008840F480403749088010E0B4
:1010700035480088C0F30D0034490D5432480088CB
:10108000401C3149088008460088C72801DD00203F
:1010900008802D48008800F4004000284ED02A48DF
:1010A0000088C0F30D062A4802682A4801682AA071
:1010B00000F08EFE254932A000F08AFE2548006827
:1010C000B8B900203349088000240CE01F48005DB7
:1010D0003149085500BF1A48008800F04000002838
:1010E000F9D0601C84B2B442F0DB012019490860D9
:1010F0001EE017480068D8B916480068012817D1C3
:1011000000202449088000240DE017E00F48005D0E
:101110002249085500BF0A48008800F04000002816
:10112000F9D0601C84B2B442F0DB012008490860A9
:101130001BA000F04DFE00200349088070BD000098
:1011400000380140000801408C00002078AC0020ED
:10115000340000203000002075736172745F666C8B
:101160006167313A3A2564202020616E64207573EE
:101170006172745F666C6167323A3A2025640A00D6
:1011800055534152545F52585F4255463A3A25737F
:10119000200A000020000020D0000020980100203C
:1011A0006F7665720A0000000948804709480047C9
:1011B000FEE7FEE7FEE7FEE7FEE7FEE7FEE7FEE707
:1011C000FEE7FEE704480549054A064B7047000064
:1011D000070B000831010008A0AD0020A0B30020DB
:1011E000A0AF0020A0AF002010B50446CC48844238
:1011F00008D10121042000F02DFB0021042000F083
:1012000029FB46E0C748844208D10121082000F0AC
:1012100021FB0021082000F01DFB3AE0C248844277
:1012200008D10121102000F015FB0021102000F052
:1012300011FB2EE0BD48844208D10121202000F09E
:1012400009FB0021202000F005FB22E0B848844281
:1012500008D10121402000F0FDFA0021402000F0DB
:10126000F9FA16E0B348844208D10121802000F049
:10127000F1FA0021802000F0EDFA0AE0AE48844245
:1012800007D10121801500F0E5FA0021A01500F03A
:10129000E1FA10BD10B50121084600F0DBFA00218B
:1012A000012000F0D7FA10BD2DE9F04102460025DB
:1012B0000026002000230024002791F803C00CF032
:1012C0000F0591F803C00CF0100CBCF1000F03D017
:1012D00091F802C04CEA050591F800C0BCF1000F7E
:1012E00031D0146800202BE04FF0010C0CFA00F311
:1012F000B1F800C00CEA03069E4220D183004FF0F3
:101300000F0C0CFA03F7BC4305FA03FC4CEA040487
:1013100091F803C0BCF1280F06D14FF0010C0CFA74
:1013200000FCC2F814C00AE091F803C0BCF1480FF9
:1013300005D14FF0010C0CFA00FCC2F810C0401CA3
:101340000828D1D31460B1F800C0BCF1FF0F34DD20
:10135000546800202EE000F1080C4FF0010808FA54
:101360000CF3B1F800C00CEA03069E4221D18300C1
:101370004FF00F0C0CFA03F7BC4305FA03FC4CEAE0
:10138000040491F803C0BCF1280F05D100F1080C4A
:1013900008FA0CF8C2F8148091F803C0BCF1480FA9
:1013A00007D100F1080C4FF0010808FA0CF8C2F858
:1013B0001080401C0828CED35460BDE8F0814FF661
:1013C000FF710180022181700421C17070470246C3
:1013D000002093680B400BB1012000E00020704713
:1013E0000146886880B2704702460020D3680B40EF
:1013F0000BB1012000E0002070470146C86880B2B0
:10140000704701617047416170470AB1016100E0B6
:1014100041617047C16070474FF480320A43826176
:101420008161826182698269704702460020434B74
:1014300018684FF68073184040EA021008433F4B8B
:10144000186070473E49C8617047F0B50A460023EE
:1014500000240021002500F00046B6F1004F02D123
:10146000364EF16901E0354E7168C0F3034583B231
:1014700000F44016B6F5401F08D121F070612F4EE0
:10148000766826F070662D4F7E6012E000F48016BC
:10149000B6F5801F06D1032606FA05F4A14341F0F4
:1014A000706106E0460D360103FA06F6B14341F0DD
:1014B000706122B1460D360103FA06F6314300F0A1
:1014C0000046B6F1004F02D11C4EF16101E01B4E07
:1014D0007160F0BD30B500228B071C0F0F2303FA9B
:1014E00004F2164B08338C1053F824309343134CFA
:1014F00008348D1044F8253023468C1053F82430DE
:101500008C07240F00FA04F423430C4C08348D108C
:1015100044F8253030BD0A49DC31086070470000CE
:1015200000080140000C014000100140001401407F
:1015300000180140001C0140002001400000014053
:1015400000002042DF48006840F00100DD490860EB
:1015500008464068DC490840DA49486008460068A7
:10156000DA490840D74908600846006820F480201E
:1015700008600846406820F4FE0048604FF41F00F1
:1015800088607047CF49096821F48031CD4A1160E5
:101590001146096821F480211160B0F5803F03D025
:1015A000B0F5802F0ED106E0C649096841F48031BC
:1015B000C44A116007E0C349096841F4A021C14A47
:1015C000116000E000BF00BF704710B50146002267
:1015D000002300204A11012A02D1BA4C236806E0F8
:1015E000022A02D1B74C236A01E0B64C636A01F0CB
:1015F0001F02012494401C400CB1012000E0002097
:1016000010BD38B5002000900024002500BF312017
:10161000FFF7DBFF05460098401C00900098B0F5EE
:10162000A06F01D0002DF2D03120FFF7CEFF08B11E
:10163000012400E00024204638BD01460020A14AD4
:10164000106820F0F80040EAC10010607047A0491F
:1016500008607047024600209A4B586820F47C10BE
:1016600042EA01031843974B58607047984908664F
:10167000704701460020934A506820F00300084359
:10168000506070478F48406800F00C00704701467A
:1016900000208C4A506820F0F000084350607047EA
:1016A00001460020874A506820F4E06008435060FB
:1016B000704701460020834A506820F4605040EA99
:1016C000C1005060704729B17E4A527A02437D4B77
:1016D0005A7204E07B4A527A82437A4B5A727047BC
:1016E0007B49D8310860704701460020754A506830
:1016F00020F440400843506070470021714A203276
:101700001170704A82F82010012802D004280AD1F2
:1017100004E001216B4A2032117005E00521694A7D
:101720002032117000E000BF00BF704769490860B7
:1017300070476449096A0143624A1162704765490A
:1017400044390860704730B500210022002400238E
:101750005C4D6D6805F00C0121B1042905D0082904
:1017600023D105E05C4D056022E05B4D05601FE084
:10177000544D6D6805F47012524D6D6805F4803457
:10178000022505EB92421CB9544D554305600BE010
:101790004C4D6D6805F400351DB1504D5543056045
:1017A00002E04D4D5543056002E04B4D056000BF22
:1017B00000BF444D6D6805F0F0010909484D6B5CB0
:1017C0000568DD4045603F4D6D6805F4E061090A3C
:1017D000434D6B5C4568DD4085603A4D6D6805F4AE
:1017E0006051C90A3E4D6B5C4568DD40C560354DB2
:1017F0006D6805F44041890B3A4D6B5CC568B5FBDB
:10180000F3F5056130BD29B12E4A526902432D4BD3
:101810005A6104E02B4A526982432A4B5A6170474D
:1018200029B1284A92690243264B9A6104E0254A6D
:1018300092698243234B9A61704729B1214AD26948
:101840000243204BDA6104E01E4AD26982431D4BF9
:10185000DA61704729B11B4AD2680243194BDA603A
:1018600004E0184AD2688243164BDA60704729B107
:10187000144A12690243134B1A6104E0114A1269B7
:101880008243104B1A617047124940390860704713
:101890000F49C86470470B49C87170470948406ACE
:1018A00040F0807007494862704701460020054AB1
:1018B00092680A400AB1012000E000207047014907
:1018C00088727047001002400000FFF8FFFFF6FE2C
:1018D000000042428004424200127A0000093D00AA
:1018E0008E0000209E00002010B50446FB48844274
:1018F00009D101218803FFF7ADFF00214FF480409B
:10190000FFF7A8FF32E0F648844209D101214804DC
:10191000FFF7ADFF00214FF40030FFF7A8FF25E0EF
:10192000F048844209D101218804FFF7A0FF00217B
:101930004FF48020FFF79BFF18E0EB48844209D169
:101940000121C804FFF793FF00214FF40020FFF7A7
:101950008EFF0BE0E548844208D101210805FFF71E
:1019600086FF00214FF48010FFF781FF10BD2DE9A5
:10197000F04786B005460E460024A24600BFA146A9
:101980000027B08900B100BF2F462C8A4CF6FF70AB
:101990000440F08804432C82AC894EF6F3100440D6
:1019A000B08831890843718908430443AC81AC8A0B
:1019B0004FF6FF400440B0890443AC8201A8FFF712
:1019C000C2FEC648874202D1DDF810A001E0DDF872
:1019D0000CA0A88900F4004040B10AEBCA0000EB5B
:1019E0000A1031684900B0FBF1F807E00AEBCA00C1
:1019F00000EB0A1031688900B0FBF1F86420B8FBF5
:101A0000F0F004012009642101FB1089A88900F489
:101A1000004040B1322000EBC900B0FBF1F000F013
:101A20000700044308E0322000EB09106421B0FBFA
:101A3000F1F000F00F0004432C8106B0BDE8F08700
:101A40004FF41651016000218180C18001810C2179
:101A5000418100218181704710B502460020108A23
:101A60004FF2FF0318400B884C8823438C88234394
:101A7000CC8823431843108210BD0021018041808F
:101A80008180C180704721B1828942F400528281F5
:101A900004E082894DF6FF731A4082817047F0B5E9
:101AA0000346002400260025002040F66A17B942AC
:101AB00000D100BF1846C1F3421401F01F060127F0
:101AC00007FA06F5012C01D10C3004E0022C01D1FB
:101AD000103000E014301AB107682F43076002E0AD
:101AE0000768AF430760F0BD1AB1838A0B43838256
:101AF00002E0838A8B4383827047028A4FF6F07339
:101B00001A400282028A0A430282704782894FF297
:101B1000FF731A40828182890A438281704721B112
:101B2000828942F00202828104E082894FF6FD73CD
:101B30001A4082817047028A4FF6DF731A40028290
:101B4000028A0A430282704721B1028A42F480422B
:101B5000028204E0028A4BF6FF731A400282704749
:101B6000C1F308028280704701468888C0F30800EC
:101B70007047818941F0010181817047028BD2B2A7
:101B80000283028B42EA012202837047028B02F435
:101B90007F420283028B0A430283704721B1828A0B
:101BA00042F02002828204E0828A4FF6DF731A40FC
:101BB0008282704721B1828A42F01002828204E060
:101BC000828A4FF6EF731A408282704721B1828A6F
:101BD00042F00802828204E0828A4FF6F7731A40CC
:101BE0008282704721B1828942F40042828103E0FF
:101BF0008289C2F30E028281704721B1828A42F447
:101C00000062828204E0828A4FF2FF731A4082826D
:101C10007047828A4FF6FB731A408282828A0A4397
:101C20008282704721B1828A42F00202828204E0FD
:101C3000828A4FF6FD731A40828270470246002066
:101C4000B1F5007F00D100BF13880B400BB101201C
:101C500000E00020704701F40072B2F5007F00D16F
:101C600000BFCA430280704770B5024600240023BB
:101C70000025002040F66A16B14200D100BFC1F332
:101C8000421501F01F03012606FA03F3012D02D1CC
:101C90009689334006E0022D02D1168A334001E0D6
:101CA000968A33400C12012606FA04F41688344052
:101CB00013B10CB1012000E0002070BD10B500226E
:101CC000002340F66A14A14200D100BF0A12012489
:101CD0009440A3B2DC43048010BD000000380140F2
:101CE0000044004000480040004C004000500040CC
:101CF00031490143314A1160704770B5002100231A
:101D00000F22C47804B32D4C246804F4E064C4F5B5
:101D1000E064210AC1F10403CA40447804FA03F1E3
:101D20008478144021430901254C0678A155047894
:101D300004F01F050124AC4005786D11AD0005F1DC
:101D4000E025C5F8004109E0047804F01F050124EE
:101D5000AC401C4D0678761145F8264070BD1A4AF5
:101D60000A400243154B1B1F1A60704739B1134AD2
:101D7000121D12680243114B1B1D1A6006E00F4A28
:101D8000121D126882430D4B1B1D1A6070470428F8
:101D900008D14FF0E021096941F004014FF0E02241
:101DA000116107E04FF0E021096921F004014FF0D3
:101DB000E0221161704700000000FA050CED00E020
:101DC00000E400E080E100E080FFFF1F70470000BA
:101DD0000FB4044910B503AA029800F07FF910BCB3
:101DE0005DF814FB880000200FB41CB5074B06AA51
:101DF0007B4469460090059800F041F9002069464F
:101E000000F050F91CBC5DF814FB0000B1020000AA
:101E10002DE9F0410E460446002020622046E1688C
:101E2000884730B3252805D0D4E901219047206A9E
:101E3000401CF2E7E168204600278847050018D0DB
:101E4000A5F14100192802D820354FF40067324629
:101E5000294620462760FEF7A5F940B1012804D0A5
:101E6000F61D26F007060836D8E7361DD6E72846C1
:101E7000DAE7206ABDE8F08170B50C460546012A14
:101E800005D02878800600D5EA69002302E0012306
:101E900005E05B1C934202D2E05C0028F9D1A869FE
:101EA000E618C01AA861286A184428622846AFF3C9
:101EB000008004E0D5E9012114F8010B9047B442F9
:101EC000F8D32846AFF3008070BD00002DE9F04143
:101ED0000646002410687529314616A510D0AFF3C8
:101EE0000080002802DA404213A507E031688A0723
:101EF00001D512A502E0490704D511A5012401E08E
:101F0000AFF3008000210A2206F1240709E0B0FBAC
:101F1000F2FCB0FBF2F302FB1C00303078541846A0
:101F2000491C0028F3D123462A463046BDE8F0413B
:101F300000F046B8000000002D0000002B0000005B
:101F40002000000070B5064600F036F8046805462B
:101F500030460A22002100F0D3F82C6070BD00004A
:101F6000014A00F005B90000A40000204FF0000273
:101F70000429C0F0128010F0030C00F01D81CCF198
:101F8000040CBCF1020F18BF00F8012BA8BF20F809
:101F9000022BA1EB0C0100F00FB95FEAC17C24BF5A
:101FA00000F8012B00F8012B48BF00F8012B704707
:101FB00070477047704770470048704740AD002039
:101FC0002DE9F0470D4699469246044600F1240853
:101FD0000168880604D5E06921F01001216000E065
:101FE0000120A84201DD471B00E00027A1697A1902
:101FF00002EB0900081AA0612078C00602D420462E
:10200000AFF30080002608E0D4E901211AF80600A9
:102010009047206A401C761C20624E45F4DB2078F5
:10202000C0060AD52046AFF3008006E0D4E90121BE
:1020300030209047206A401C2062381EA7F101071B
:10204000F4DC07E0D4E9012118F805009047206A84
:10205000401C2062281EA5F10105F3DC2046AFF3E9
:1020600000802078000602D50220BDE8F08701201C
:10207000FBE7000001694A1C02610878704700B55F
:102080008FB0CDE901310021059105497944CDE9B1
:10209000031011466846FFF7BBFE0FB000BD0000FD
:1020A000E5FFFFFF0A6802F8010B0A60704710B5F0
:1020B000436913B1AFF3008001E0FFF7DDFE0120BB
:1020C00010BD127800F124010A7000224A7001222A
:1020D000EDE711684FF0FF32E9E70000074B70B5FC
:1020E0000D467B44FFF7CBFF0446284600F0E5F899
:1020F00010B14FF0FF3070BD204670BD7DEEFFFF88
:102100002DE9F04791460F4680460446002614F814
:10211000015B2DB100F07AF80068405DC007F6D190
:102120002B2D02D02D2D18D0641E4A46394620464C
:1021300000F074F827B13968A14201D1C7F80080D6
:102140004FF0020471050BD54042002803DDFFF774
:1021500033FF0460A007BDE8F08746F48066E4E73B
:102160000028F8DAFFF728FF04606FF00040F2E77C
:102170002DE9F04115460E46040002D12C6804B941
:102180000BA4204600F0ADF80444207870B1274637
:102190003146384600F095F80444207810B100200C
:1021A00004F8010B38462C60BDE8F0810027F9E700
:1021B000000000004FF0000200B51346944696461A
:1021C000203922BFA0E80C50A0E80C50B1F120014A
:1021D000BFF4F7AF090728BFA0E80C5048BF0CC0F8
:1021E0005DF804EB890028BF40F8042B08BF704756
:1021F00048BF20F8022B11F0804F18BF00F8012BC8
:10220000704700000048704740AD002010B500F056
:102210009BF8001D10BD00BFE90100002DE9F05F33
:10222000824615468B4600270AF10104B94600781C
:10223000302801D09DB113E014F8010B0127782854
:1022400003D0582801D045B10AE00DB1102D07D1B7
:10225000002714F8010B102502E0082500E00A25EC
:102260000026B0460EE005FB080005FB06F101273D
:102270001FFA80F801EB1046B6F5803F00D3B9464F
:1022800014F8010B294600F063F80028EBDABBF1E3
:10229000000F05D00FB1641E00E05446CBF800409B
:1022A000B9F1000F06D0FFF787FE02210160C81EBA
:1022B000BDE8F09F48EA0640FAE7007B00F08000A6
:1022C000704730B503461D781DB10A4603E0AC42A5
:1022D00001D1181A30BD12F8014B002CF7D15B1C4C
:1022E000F1E730B503461D783DB10A4612F8014BBF
:1022F0001CB1AC42FAD15B1CF5E7181A30BD75462B
:10230000FFF780FFAE4605006946534620F0070000
:10231000854618B020B5FEF755FFBDE820404FF0C8
:1023200000064FF000074FF000084FF0000B21F0BF
:102330000701AC46ACE8C009ACE8C009ACE8C0098C
:10234000ACE8C0098D4670470048704760AD00207A
:102350003A2800D2303820F02002412A01D3A2F1DD
:102360003700884201D34FF0FF30704710B5044664
:10237000AFF300802046BDE81040FDF734BF0000F9
:102380004FF0013C50F8042B51F8043B9A4221D104
:10239000A2EB0C03934313EACC1317D150F8042B90
:1023A00051F8043B9A4215D1A2EB0C03934313EA74
:1023B000CC130BD150F8042B51F8043B9A4209D1AD
:1023C000A2EB0C03934313EACC13DBD04FF00000D5
:1023D000704700BFD01A01BAB1FA81F101F01801BB
:1023E00022FA01F0CB40C1F12001DBB2C0B2C01A29
:1023F0002CFA01F3D11A914311EAC311E6D17047C7
:1024000010B500290AD00878002807D0054878447C
:10241000FFF7B6FF002801D0002010BD0248784425
:1024200010BD0000560000004E0000000005000036
:1024300000180000200000002000000000A00000A4
:10244000000003007425000800000020A800000020
:102450006C0100081C260008A8000020F8B200004B
:10246000880100081001000043000000F8FFFFFF92
:102470000040404040404040404041414141414097
:10248000404040404040404040404040404040404C
:1024900040050202020202020202020202020202DB
:1024A00002202020202020202020200202020202E0
:1024B0000202909090909090101010101010101038
:1024C0001010101010101010101010100202020244
:1024D0000202888888888888080808080808080888
:1024E0000808080808080808080808080202020284
:1024F000400000000000000000000000000000009C
:1025000000000000000000000000000000000000CB
:1025100000000000000000000000000000000000BB
:1025200000000000000000000000000000000000AB
:10253000000000000000000000000000000000009B
:10254000000000000000000000000000000000008B
:10255000000000000000000000000000000000007B
:10256000000000000000000000000000000000006B
:10257000000000001000200030004000500060000B
:10258000700080009000A000B000C000D000E0000B
:10259000000001000000000000000000000000003A
:1025A000000000000000000000000000000000002B
:1025B000000000000000000000000000000000001B
:1025C000000000000000000000A24A04000000001B
:1025D000000000000102030406070809370C000888
:1025E0006D0C0008780200200000006878A200202E
:1025F0000000036800000000000000000000000070
:1026000000000000000001020304010203040607A9
:0C26100008090204060800000000000099
:0400000508000131BD
:00000001FF
