:020000040800F2
:1000000098B30020A5100008A1090008A309000862
:10001000A7090008AB090008AF09000800000000AC
:10002000000000000000000000000000B30900080C
:10003000B509000800000000B7090008B909000868
:10004000BF100008BF100008BF100008BF10000854
:10005000BF100008BF100008BF100008BF10000844
:10006000BF100008BF100008BF100008BF10000834
:10007000BF100008BF100008BF100008BF10000824
:10008000BF100008BF100008BF100008BF10000814
:10009000BF100008BF100008BF100008BF10000804
:1000A000BF100008BF100008BF100008BF100008F4
:1000B000BF100008BF100008BF100008BF100008E4
:1000C000BF100008BF100008BF100008BF100008D4
:1000D000BF100008AD0F0008BF100008BF100008D7
:1000E000BF100008BF100008BF100008BF100008B4
:1000F000BF100008BF100008BF100008BF100008A4
:10010000BF100008BF100008BF100008BF10000893
:10011000BF100008BF100008BF100008BF10000883
:10012000BF100008BF100008BF100008BF10000873
:1001300000F002F800F04EF80AA090E8000C8244AB
:100140008344AAF10107DA4501D100F043F8AFF288
:10015000090EBAE80F0013F0010F18BFFB1A43F0A5
:10016000010318474821000068210000103A24BF0D
:1001700078C878C1FAD8520724BF30C830C144BF0C
:1001800004680C607047000000230024002500264E
:10019000103A28BF78C1FBD8520728BF30C148BFEA
:1001A0000B607047642901F00F86752901F00C86F9
:1001B000732901F0EA86002070471FB501F0F8FFAF
:1001C00004000020002102F04FF8401C60601FBDB9
:1001D00010B510BD01F0C7FF1146FFF7EEFF00F0AC
:1001E00094FB01F0F7FF03B4FFF7F2FF03BC00F04C
:1001F0007FFE000070B504460125F3A001F066FD06
:10020000F2480068F24908600846006840680860E3
:100210001FE0F0A001F05AFDED480068002818D05A
:10022000EDA001F053FDEA480068806840B1ECA001
:1002300001F04CFDE64800688068E549086008E088
:10024000E9A001F043FD2146F3A001F03FFD0025A8
:1002500004E0DF4800680068A042DAD100BF012D49
:100260000CD1DB4800680168F5A001F02FFDD848EB
:10027000006800690168FAA001F028FDFEA001F005
:1002800025FD284670BD10B51421002000F063FD47
:10029000CE4908606520096808600020CB490968DC
:1002A0008860CA4909680861C8490968C860C749BF
:1002B00009684860142100F04EFDC5490860C34834
:1002C000006808601421002000F045FDEC4908603A
:1002D000BE480068086010BD70B5054614210020B6
:1002E00000F039FD0446B9480068406870B9B84864
:1002F00000684460B6480068E06025600020A060A7
:10030000B24800682061B248046029E0B048006843
:10031000C8B104E0AE4800688068AD490860AC48E8
:10032000006880680028F5D1A94800688460A84862
:100330000068E06025600020A060A54800680069B2
:100340002061A3480460A24800680168CDA001F0C4
:10035000BDFC9F48006800690168CFA001F0B6FCB1
:1003600070BD70B50446012597A001F0AFFC974819
:100370000068974908601FE096A001F0A7FC944828
:100380000068002818D094A001F0A0FC90480068F4
:10039000806840B192A001F099FC8D4800688068A7
:1003A0008B49086008E0C3A001F090FC2146CDA075
:1003B00001F08CFC002504E0854800680068A0423C
:1003C000DAD100BFD3A001F081FC012D13D1804808
:1003D00000680168D1A001F079FC7D480068C06820
:1003E0007B4909688968C8607948006880687849ED
:1003F0000968C968886070BD70B500260020D149C1
:100400000860D148008800F4004020B3CE4800883E
:10041000C0F30D05002411E0CC48005DCC490880F4
:10042000CA48005DCB49085500BFC948001F008875
:1004300000F040000028F8D0601C84B2AC42EBDB36
:10044000C5A001F043FC0020BF490880C4480088D3
:10045000BC49086002E0C349088800BFB948006889
:1004600070BD2DE9FC470546BFA103C9CDE90001D8
:100470000024A14600260027A046BDA001F026FCCE
:100480006946284601F0EAFC04462146BBA001F07B
:100490001DFC204601F0D4FC0646BA490E800846F1
:1004A0000188B9A001F012FC6946002001F0D6FCD9
:1004B0000446204601F0C4FC0746B2494F80084676
:1004C0004188B5A001F002FC6946002001F0C6FC9D
:1004D0000446204601F0B4FC8046AA49A1F80480F5
:1004E00008468188AFA001F0F1FB08E02146B0A0EA
:1004F00001F0ECFB6946002001F0B0FC0446002C42
:10050000F4D1A0480088AC490988884212D19D489E
:100510008088652805D09B48808840F257418842F2
:1005200008D198494888FFF765FE18B99549488869
:10053000FFF7D2FE83480068BDE8FC8738B59FA06E
:100540000068009000246946824801F087FC044658
:100550002046FFF786FF07E06946002001F07EFC99
:1005600004462046FFF77DFF002CF5D17548006852
:1005700038BD10B57B48008848B1764990A001F09D
:10058000A5FBFFF7DBFF00207649088002E090A082
:1005900001F09CFB10BD2DE9FF4105460E461746B4
:1005A000984600248E48058047804681A0F8048044
:1005B00000208B49C8800220088108460089C9882C
:1005C000874A5289864B0DE16F6E6500340000202A
:1005D0003800002074776F00746865726500000051
:1005E000666F75720A0000006F7574206F66207365
:1005F000746F72616765206E6F646520616E642040
:1006000063616E6E6F742066696E64206974206F1A
:100610007574200A00000000746865206C6F7374A4
:10062000206D6964206973203A2025642D2D2D2DBD
:100630002D2D2D6661696C212121200A000000000A
:10064000676574206D69643A202025642D2D2D2D59
:100650002D2D2D2D7375636365737321210A0000A1
:1006600069747320666174686572206973203A202A
:100670002025640A0000000066697665000000001D
:100680003C000020696E73657274206D6964206996
:10069000733A202564000000696E736572742066E9
:1006A0006174686572206E6F64652069733A2025F5
:1006B000640000006F7574206F662073746F726140
:1006C0006765206E6F646520616E642063616E6E85
:1006D0006F742064656C657465206974206F75742F
:1006E000200A0000746865206D69642063616E6E85
:1006F0006F742064656C657465206973203A2025E9
:10070000642D2D2D2D2D2D2D6661696C212121202B
:100710000A000000666976650A00000064656C6581
:100720007465206E6F6465206D6964206973203A7A
:10073000202025642D2D2D2D737563636573212174
:100740000A00000024000020800000206CAC002083
:1007500004380140C40000200D0A0D0A000000000A
:100760001E00002020000020202C090A00000000AC
:10077000546F6B656E733A0A00000000206F6F259E
:10078000736F6F008C010020636F6D6D616E643A52
:100790002025640A000000006D69643A2025640A7F
:1007A000000000006469643A2025640A000000002B
:1007B0002025730A0000000018000020203B0000E4
:1007C000626567696E0A202573200A656E64000001
:1007D000656C736520736974756174696F6E000070
:1007E000980100209B88CDE90032CDE902105B48DA
:1007F000438802885AA15F4801F074FA00BF04E000
:100800005C48005D5C490855641C142CF8D35A49B7
:100810005AA001F05BFA5A48008804B0BDE8F081A4
:100820002DE9F04104460D461646274633462A4632
:1008300039462046FFF7AFFEBDE8F08170B50446AB
:10084000224665214F480088FFF7EAFF054600254C
:10085000284670BD70B50446224665214A48008886
:10086000FFF7DEFF05460025284670BD70B504463B
:100870002246652143480088FFF7D2FF0546002540
:10088000284670BD35484088404908804048408827
:10089000488001208880C880704710B540F25742D8
:1008A00065213C480088FFF7BBFF044647F2305003
:1008B00000F0F1FA47F2305000F0EDFA47F2305014
:1008C00000F0E9FA47F2305000F0E5FA47F2305014
:1008D00000F0E1FA47F2305000F0DDFA47F2305014
:1008E00000F0D9FA47F2305000F0D5FA47F2305014
:1008F00000F0D1FA47F2305000F0CDFA47F2305014
:1009000000F0C9FA0024204610BD00F087FA00F07C
:100910005FFA4FF4165000F0FAFAFFF7B4FC1BE050
:1009200000201D4908601D49C1F894014FF49670DC
:1009300000F0B1FA01201849086000201749C1F8F9
:100940009401FFF7AAFFFFF714FE6720FFF776FF79
:10095000AFF2703001F0BAF9E2E700009801002030
:10096000202025752575257525752575257520206B
:10097000000000009C000020B00000202573000053
:100980001C00002018000020040000202C00002083
:100990008C01002016000020948121420000234297
:1009A000704700BFFEE700BFFEE700BFFEE700BFE5
:1009B000FEE7704770477047704700000CB5002095
:1009C000019000906C48006840F480306A490860EB
:1009D00000BF6948006800F4003000900198401C96
:1009E0000190009818B90198B0F5A06FF1D1624854
:1009F000006800F4003010B10120009001E00020F8
:100A000000900098012843D15C48006840F0100035
:100A10005A4908600846006820F00300086008464C
:100A2000006840F00200086053484068524948603E
:100A30000846406848600846406840F48060486066
:100A40000846406820F47C1048600846406840F43E
:100A5000E81048600846006840F08070086000BFF9
:100A60004548006800F000700028F9D0424840680E
:100A700020F00300404948600846406840F002000A
:100A8000486000BF3C48406800F00C000828F9D1DD
:100A90000CBD10B5FFF792FF10BD10B536480068C9
:100AA00040F0010034490860084640683449084075
:100AB0003149486008460068324908402E490860BC
:100AC0000846006820F4802008600846406820F44A
:100AD000FE0048604FF41F008860FFF7DAFF4FF018
:100AE00000602949086010BD10B5002100200022D7
:100AF000214B5B6803F00C0121B1042906D00829C1
:100B000028D107E0214B224C236027E01F4B204CCB
:100B1000236023E0184B5B6803F47010164B5B688E
:100B200003F48032022303EB904022B9194B434374
:100B3000174C23600DE0104B5B6803F4003323B1C6
:100B4000144B4343124C236003E0104B4343104CBF
:100B5000236003E00D4B0E4C236000BF00BF064B2B
:100B60005B68C3F303130C4CE15C094B1B68CB407F
:100B7000074C236010BD000000100240002002401E
:100B80000000FFF8FFFFF6FE08ED00E000127A001B
:100B90004800002000093D004C00002070B50346CD
:100BA0000C4603E014F8015B03F8015B151EA2F18B
:100BB0000102F7D170BD30B5034601E003F8011B17
:100BC000141EA2F10102F9D130BD10B504467C49D2
:100BD00051F824104A007B4951F824000021FFF706
:100BE000EAFF794951F824207649083951F8240060
:100BF0000021FFF7E0FF012172480830015510BDC8
:100C000010B501460023002207E06E4850F821008D
:100C100030F8120000B15B1C521C694850F82100EA
:100C20009042F2D864205843654C54F82140B0FB00
:100C3000F4F0C0B210BD2DE9F04704460F46002580
:100C4000A94660480830005D20B95E481038016848
:100C5000204688471FB94FF0FF30BDE8F0875B485A
:100C600050F82400B7FBF0F086B2584850F8240042
:100C7000B7FBF0F100FB117008B1701C86B2504850
:100C800050F82400451E22E04E4850F8240030F869
:100C9000150020B909F101001FFA80F901E04FF0B9
:100CA0000009B14512D14FF0000808E0454850F85E
:100CB000240005EB080120F8116008F10108B04597
:100CC000F4D3424850F824006843C6E76D1E002D57
:100CD000DADA4FF0FF30C0E72DE9F04104460E4666
:100CE00038480830005D38B9364810380168204669
:100CF00088470120BDE8F081334850F82400B04215
:100D000017D9324850F82400B6FBF0F12D4850F8BE
:100D1000240030F81120002507E00023294850F86E
:100D200024004F1920F817306D1C9542F5DB002088
:100D3000E0E70220DEE770B505460C4604B970BD59
:100D40002048083850F82500261A31462846FFF773
:100D5000C3FF00BFF3E770B504460E463146204698
:100D6000FFF769FF0546681C08B9002070BD1548EB
:100D7000083850F824002844F8E72DE9F0410446EB
:100D80000F46164631462046FFF755FF0546681CBC
:100D900010B90020BDE8F0810A49083951F8241043
:100DA000481932463946FFF7F9FE39462046FFF723
:100DB000C2FF0448083850F824002844EAE700003D
:100DC000942200086C000020A42200089C22000845
:100DD00008B50121482000F0A1FC2020ADF800005A
:100DE00010208DF8030003208DF8020069460948A1
:100DF00000F0D8F92021074800F081FA2020ADF852
:100E000000006946044800F0CDF92021024800F0B6
:100E100076FA08BD000C01400018014010B56FF0D3
:100E2000040000F032FF2E4800682E49B0FBF1F0BC
:100E30002D4908700846007800EB4001C1EBC01056
:100E40004FF6FF7101EAC0002849088010BD014635
:100E5000254A12784A434FF0E0235A6100229A61F2
:100E60001A46126942F001021A6100BF4FF0E022F7
:100E7000106900F001021AB100F48032002AF5D0A6
:100E80004FF0E022126922F001024FF0E0231A61D4
:100E900000229A6170470146144A12884A434FF073
:100EA000E0235A6100229A611A46126942F0010257
:100EB0001A6100BF4FF0E022106900F001021AB180
:100EC00000F48032002AF5D04FF0E022126922F0BF
:100ED00001024FF0E0231A6100229A61704700007E
:100EE0004800002000127A00780000207A000020DC
:100EF000014600BF704700BF634A128802F04002FB
:100F0000002AF9D0C2B2604B1B1D1A80704710B581
:100F100086B00446012144F2040000F0FFFB5A4869
:100F200000F060FC4FF40070ADF8140003208DF861
:100F3000160018208DF8170005A9544800F032F962
:100F40004FF48060ADF8140004208DF8170005A957
:100F50004E4800F027F925208DF8000003208DF879
:100F600001008DF8020001208DF80300684600F0B2
:100F700042FE01940020ADF80800ADF80A00ADF87B
:100F80000C00ADF810000C20ADF80E0001A93E4891
:100F900000F06BFC012240F225513B4800F0FDFCC3
:100FA0000121394800F0EDFC06B010BD70B540F2EB
:100FB0002551354800F0D6FD002864D0324800F0B5
:100FC00051FDC5B23248008800F4004058BB30489B
:100FD000008800F4804060B10A2D03D000202C4925
:100FE000088020E02A48008840F400402849088012
:100FF00019E00D2D06D12648008840F48040244990
:10100000088010E022480088C0F30D0021490D54EB
:101010001F480088401C1E49088008460088C728D1
:1010200001DD002008801A48008800F4004000B369
:1010300017480088C0F30D06002411E01548005D34
:101040001149091D08801348005D1349085500BF68
:101050000D48008800F040000028F9D0601C84B2E0
:10106000B442EBDB3B210C4A701C115401200B49AC
:101070000880002405E00848005D09490855601C07
:1010800084B2B442F7DB70BD003801400008014073
:10109000800000206CAC0020A4AB002020000020C9
:1010A000C40000200948804709480047FEE7FEE7E2
:1010B000FEE7FEE7FEE7FEE7FEE7FEE7FEE7FEE708
:1010C00004480549054A064B704700009B0A000882
:1010D0003101000898AD002098B3002098AF00209F
:1010E00098AF002010B50446CC48844208D10121B5
:1010F000042000F02DFB0021042000F029FB46E035
:10110000C748844208D10121082000F021FB0021BA
:10111000082000F01DFB3AE0C248844208D10121BA
:10112000102000F015FB0021102000F011FB2EE034
:10113000BD48844208D10121202000F009FB002194
:10114000202000F005FB22E0B848844208D10121AC
:10115000402000F0FDFA0021402000F0F9FA16E0EE
:10116000B348844208D10121802000F0F1FA002127
:10117000802000F0EDFA0AE0AE48844207D1012158
:10118000801500F0E5FA0021A01500F0E1FA10BD8D
:1011900010B50121084600F0DBFA0021012000F023
:1011A000D7FA10BD2DE9F0410246002500260020A7
:1011B00000230024002791F803C00CF00F0591F8DC
:1011C00003C00CF0100CBCF1000F03D091F802C06A
:1011D0004CEA050591F800C0BCF1000F31D014684D
:1011E00000202BE04FF0010C0CFA00F3B1F800C026
:1011F0000CEA03069E4220D183004FF00F0C0CFA3C
:1012000003F7BC4305FA03FC4CEA040491F803C05D
:10121000BCF1280F06D14FF0010C0CFA00FCC2F80B
:1012200014C00AE091F803C0BCF1480F05D14FF09B
:10123000010C0CFA00FCC2F810C0401C0828D1D3E5
:101240001460B1F800C0BCF1FF0F34DD5468002019
:101250002EE000F1080C4FF0010808FA0CF3B1F889
:1012600000C00CEA03069E4221D183004FF00F0C10
:101270000CFA03F7BC4305FA03FC4CEA040491F8AA
:1012800003C0BCF1280F05D100F1080C08FA0CF8D6
:10129000C2F8148091F803C0BCF1480F07D100F1E7
:1012A000080C4FF0010808FA0CF8C2F81080401C36
:1012B0000828CED35460BDE8F0814FF6FF7101805D
:1012C000022181700421C17070470246002093689A
:1012D0000B400BB1012000E00020704701468868F8
:1012E00080B2704702460020D3680B400BB101204A
:1012F00000E0002070470146C86880B27047016175
:101300007047416170470AB1016100E04161704777
:10131000C16070474FF480320A438261816182610B
:1013200082698269704702460020434B18684FF675
:101330008073184040EA021008433F4B1860704722
:101340003E49C8617047F0B50A46002300240021D9
:10135000002500F00046B6F1004F02D1364EF1698B
:1013600001E0354E7168C0F3034583B200F44016C6
:10137000B6F5401F08D121F070612F4E766826F037
:1013800070662D4F7E6012E000F48016B6F5801F67
:1013900006D1032606FA05F4A14341F0706106E088
:1013A000460D360103FA06F6B14341F0706122B1F1
:1013B000460D360103FA06F6314300F00046B6F159
:1013C000004F02D11C4EF16101E01B4E7160F0BD77
:1013D00030B500228B071C0F0F2303FA04F2164BC3
:1013E00008338C1053F824309343134C08348D1079
:1013F00044F8253023468C1053F824308C07240FF2
:1014000000FA04F423430C4C08348D1044F82530C2
:1014100030BD0A49DC310860704700000008014017
:10142000000C014000100140001401400018014070
:10143000001C01400020014000000140000020424B
:10144000DF48006840F00100DD4908600846406858
:10145000DC490840DA49486008460068DA49084033
:10146000D74908600846006820F4802008600846D4
:10147000406820F4FE0048604FF41F008860704709
:10148000CF49096821F48031CD4A116011460968BD
:1014900021F480211160B0F5803F03D0B0F5802F9A
:1014A0000ED106E0C649096841F48031C44A116092
:1014B00007E0C349096841F4A021C14A116000E076
:1014C00000BF00BF704710B5014600220023002076
:1014D0004A11012A02D1BA4C236806E0022A02D13D
:1014E000B74C236A01E0B64C636A01F01F02012485
:1014F00094401C400CB1012000E0002010BD38B524
:10150000002000900024002500BF3120FFF7DBFF02
:1015100005460098401C00900098B0F5A06F01D0DF
:10152000002DF2D03120FFF7CEFF08B1012400E0FA
:101530000024204638BD01460020A14A106820F052
:10154000F80040EAC10010607047A0490860704789
:10155000024600209A4B586820F47C1042EA0103AE
:101560001843974B58607047984908667047014682
:101570000020934A506820F00300084350607047F1
:101580008F48406800F00C007047014600208C4AEC
:10159000506820F0F000084350607047014600207A
:1015A000874A506820F4E060084350607047014665
:1015B0000020834A506820F4605040EAC100506027
:1015C000704729B17E4A527A02437D4B5A7204E039
:1015D0007B4A527A82437A4B5A7270477B49D831A0
:1015E0000860704701460020754A506820F440406A
:1015F0000843506070470021714A20321170704AD0
:1016000082F82010012802D004280AD104E0012128
:101610006B4A2032117005E00521694A20321170B1
:1016200000E000BF00BF7047694908607047644927
:10163000096A0143624A116270476549443908608A
:10164000704730B500210022002400235C4D6D68F6
:1016500005F00C0121B1042905D0082923D105E0AA
:101660005C4D056022E05B4D05601FE0544D6D68E8
:1016700005F47012524D6D6805F48034022505EBB7
:1016800092421CB9544D554305600BE04C4D6D68BA
:1016900005F400351DB1504D5543056002E04D4D38
:1016A0005543056002E04B4D056000BF00BF444D4F
:1016B0006D6805F0F0010909484D6B5C0568DD4077
:1016C00045603F4D6D6805F4E061090A434D6B5C70
:1016D0004568DD4085603A4D6D6805F46051C90A82
:1016E0003E4D6B5C4568DD40C560354D6D6805F469
:1016F0004041890B3A4D6B5CC568B5FBF3F505615C
:1017000030BD29B12E4A526902432D4B5A6104E083
:101710002B4A526982432A4B5A61704729B1284AA1
:1017200092690243264B9A6104E0254A92698243FA
:10173000234B9A61704729B1214AD2690243204B59
:10174000DA6104E01E4AD26982431D4BDA617047B8
:1017500029B11B4AD2680243194BDA6004E0184AE7
:10176000D2688243164BDA60704729B1144A126975
:101770000243134B1A6104E0114A12698243104B71
:101780001A61704712494039086070470F49C864B0
:1017900070470B49C87170470948406A40F0807033
:1017A00007494862704701460020054A92680A408E
:1017B0000AB1012000E0002070470149887270479B
:1017C000001002400000FFF8FFFFF6FE000042425A
:1017D0008004424200127A0000093D00820000208D
:1017E0009200002010B50446FB48844209D1012133
:1017F0008803FFF7ADFF00214FF48040FFF7A8FFFB
:1018000032E0F648844209D101214804FFF7ADFFD8
:1018100000214FF40030FFF7A8FF25E0F048844294
:1018200009D101218804FFF7A0FF00214FF4802097
:10183000FFF79BFF18E0EB48844209D10121C8045F
:10184000FFF793FF00214FF40020FFF78EFF0BE01E
:10185000E548844208D101210805FFF786FF0021F1
:101860004FF48010FFF781FF10BD2DE9F04786B0DF
:1018700005460E460024A24600BFA1460027B089B7
:1018800000B100BF2F462C8A4CF6FF700440F08850
:1018900004432C82AC894EF6F3100440B0883189A1
:1018A0000843718908430443AC81AC8A4FF6FF407A
:1018B0000440B0890443AC8201A8FFF7C2FEC648C9
:1018C000874202D1DDF810A001E0DDF80CA0A88964
:1018D00000F4004040B10AEBCA0000EB0A10316886
:1018E0004900B0FBF1F807E00AEBCA0000EB0A1070
:1018F00031688900B0FBF1F86420B8FBF0F0040116
:101900002009642101FB1089A88900F4004040B13E
:10191000322000EBC900B0FBF1F000F007000443F7
:1019200008E0322000EB09106421B0FBF1F000F078
:101930000F0004432C8106B0BDE8F0874FF4165128
:10194000016000218180C18001810C214181002141
:101950008181704710B502460020108A4FF2FF03C4
:1019600018400B884C8823438C882343CC8823431E
:101970001843108210BD0021018041808180C18008
:10198000704721B1828942F40052828104E0828949
:101990004DF6FF731A4082817047F0B5034600246C
:1019A00000260025002040F66A17B94200D100BF8A
:1019B0001846C1F3421401F01F06012707FA06F585
:1019C000012C01D10C3004E0022C01D1103000E0D8
:1019D00014301AB107682F43076002E00768AF436D
:1019E0000760F0BD1AB1838A0B43838202E0838AC9
:1019F0008B4383827047028A4FF6F0731A4002824B
:101A0000028A0A430282704782894FF2FF731A40AA
:101A1000828182890A438281704721B1828942F0A2
:101A20000202828104E082894FF6FD731A408281AE
:101A30007047028A4FF6DF731A400282028A0A4315
:101A40000282704721B1028A42F48042028204E09D
:101A5000028A4BF6FF731A4002827047C1F30802F4
:101A60008280704701468888C0F3080070478189EA
:101A700041F0010181817047028BD2B20283028B57
:101A800042EA012202837047028B02F47F42028302
:101A9000028B0A430283704721B1828A42F02002FE
:101AA000828204E0828A4FF6DF731A408282704796
:101AB00021B1828A42F01002828204E0828A4FF6CB
:101AC000EF731A408282704721B1828A42F0080285
:101AD000828204E0828A4FF6F7731A40828270474E
:101AE00021B1828942F40042828103E08289C2F3FB
:101AF0000E028281704721B1828A42F400628282A2
:101B000004E0828A4FF2FF731A4082827047828A11
:101B10004FF6FB731A408282828A0A4382827047A0
:101B200021B1828A42F00202828204E0828A4FF668
:101B3000FD731A408282704702460020B1F5007F93
:101B400000D100BF13880B400BB1012000E0002042
:101B5000704701F40072B2F5007F00D100BFCA43A4
:101B60000280704770B50246002400230025002043
:101B700040F66A16B14200D100BFC1F3421501F030
:101B80001F03012606FA03F3012D02D19689334083
:101B900006E0022D02D1168A334001E0968A3340D6
:101BA0000C12012606FA04F41688344013B10CB165
:101BB000012000E0002070BD10B50022002340F697
:101BC0006A14A14200D100BF0A1201249440A3B2BA
:101BD000DC43048010BD0000003801400044004098
:101BE00000480040004C0040005000403149014393
:101BF000314A1160704770B5002100230F22C4786C
:101C000004B32D4C246804F4E064C4F5E064210AB4
:101C1000C1F10403CA40447804FA03F18478144003
:101C200021430901254C0678A155047804F01F05CD
:101C30000124AC4005786D11AD0005F1E025C5F833
:101C4000004109E0047804F01F050124AC401C4D5C
:101C50000678761145F8264070BD1A4A0A400243BC
:101C6000154B1B1F1A60704739B1134A121D1268B9
:101C70000243114B1B1D1A6006E00F4A121D126829
:101C800082430D4B1B1D1A607047042808D14FF08A
:101C9000E021096941F004014FF0E022116107E001
:101CA0004FF0E021096921F004014FF0E0221161B9
:101CB000704700000000FA050CED00E000E400E0D1
:101CC00080E100E080FFFF1F704700000FB404496F
:101CD00010B503AA029800F05DF910BC5DF814FB82
:101CE0007C0000200FB41CB5074B06AA7B44694654
:101CF0000090059800F01FF90020694600F02EF9C9
:101D00001CBC5DF814FB00006D0200002DE9F041E1
:101D10000E460446002020622046E168884730B322
:101D2000252805D0D4E901219047206A401CF2E71C
:101D3000E168204600278847050018D0A5F141003A
:101D4000192802D820354FF400673246294620462C
:101D50002760FEF727FA40B1012804D0F61D26F0CF
:101D600007060836D8E7361DD6E72846DAE7206AA0
:101D7000BDE8F08170B50C460546012A05D02878EB
:101D8000800600D5EA69002302E0012305E05B1C20
:101D9000934202D2E05C0028F9D1A869E618C01A83
:101DA000A861286A184428622846AFF3008004E03E
:101DB000D5E9012114F8010B9047B442F8D3284625
:101DC000AFF3008070BD00002DE9F041064600240D
:101DD00010687529314616A510D0AFF30080002891
:101DE00002DA404213A507E031688A0701D512A53F
:101DF00002E0490704D511A5012401E0AFF30080FA
:101E000000210A2206F1240709E0B0FBF2FCB0FB36
:101E1000F2F302FB1C00303078541846491C0028AD
:101E2000F3D123462A463046BDE8F04100F024B8FD
:101E3000000000002D0000002B000000200000002A
:101E400070B5064600F014F80468054630460A22CC
:101E5000002100F0B1F82C6070BD0000014A00F0D4
:101E6000E3B8000098000020704770477047704743
:101E70000048704734AD00202DE9F0470D469946E3
:101E80009246044600F124080168880604D5E069FA
:101E900021F01001216000E00120A84201DD471B74
:101EA00000E00027A1697A1902EB0900081AA06175
:101EB0002078C00602D42046AFF30080002608E058
:101EC000D4E901211AF806009047206A401C761CCC
:101ED00020624E45F4DB2078C0060AD52046AFF3D9
:101EE000008006E0D4E9012130209047206A401CA0
:101EF0002062381EA7F10107F4DC07E0D4E90121D4
:101F000018F805009047206A401C2062281EA5F1A1
:101F10000105F3DC2046AFF300802078000602D5EF
:101F20000220BDE8F0870120FBE7000001694A1CA0
:101F300002610878704700B58FB0CDE9013100210A
:101F4000059105497944CDE9031011466846FFF72C
:101F5000DDFE0FB000BD0000E5FFFFFF0A6802F8DC
:101F6000010B0A60704710B5436913B1AFF30080ED
:101F700001E0FFF7FFFE012010BD127800F12401FF
:101F80000A7000224A700122EDE711684FF0FF321B
:101F9000E9E70000074B70B50D467B44FFF7CBFF28
:101FA0000446284600F0BDF810B14FF0FF3070BD78
:101FB000204670BD59EFFFFF2DE9F04791460F46CF
:101FC00080460446002614F8015B2DB100F052F85B
:101FD0000068405DC007F6D12B2D02D02D2D18D002
:101FE000641E4A463946204600F04CF827B139684D
:101FF000A14201D1C7F800804FF0020471050BD552
:102000004042002803DDFFF733FF0460A007BDE86E
:10201000F08746F48066E4E70028F8DAFFF728FF47
:1020200004606FF00040F2E72DE9F04115460E46DE
:10203000040002D12C6804B90BA4204600F085F8F6
:102040000444207870B127463146384600F06DF8D8
:102050000444207810B1002004F8010B38462C60AD
:10206000BDE8F0810027F9E7000000000048704754
:1020700034AD002010B500F09BF8001D10BD00BF6E
:10208000E90100002DE9F05F824615468B460027E6
:102090000AF10104B9460078302801D09DB113E05F
:1020A00014F8010B0127782803D0582801D045B136
:1020B0000AE00DB1102D07D1002714F8010B1025EF
:1020C00002E0082500E00A250026B0460EE005FBE8
:1020D000080005FB06F101271FFA80F801EB104606
:1020E000B6F5803F00D3B94614F8010B294600F03D
:1020F00063F80028EBDABBF1000F05D00FB1641EC6
:1021000000E05446CBF80040B9F1000F06D0FFF7CD
:10211000AFFE02210160C81EBDE8F09F48EA0640FC
:10212000FAE7007B00F08000704730B503461D7869
:102130001DB10A4603E0AC4201D1181A30BD12F8B5
:10214000014B002CF7D15B1CF1E730B503461D783D
:102150003DB10A4612F8014B1CB1AC42FAD15B1CEE
:10216000F5E7181A30BD7546FFF780FFAE4605004B
:102170006946534620F00700854618B020B5FEF7A3
:102180009FFFBDE820404FF000064FF000074FF0E2
:1021900000084FF0000B21F00701AC46ACE8C00985
:1021A000ACE8C009ACE8C009ACE8C0098D4670478E
:1021B0000048704754AD00203A2800D2303820F053
:1021C0002002412A01D3A2F13700884201D34FF007
:1021D000FF30704710B50446AFF300802046BDE8DD
:1021E0001040FEF700B800004FF0013C50F8042BFF
:1021F00051F8043B9A4221D1A2EB0C03934313EA1A
:10220000CC1317D150F8042B51F8043B9A4215D146
:10221000A2EB0C03934313EACC130BD150F8042B1D
:1022200051F8043B9A4209D1A2EB0C03934313EA01
:10223000CC13DBD04FF00000704700BFD01A01BABA
:10224000B1FA81F101F0180122FA01F0CB40C1F19D
:102250002001DBB2C0B2C01A2CFA01F3D11A9143AB
:1022600011EAC311E6D1704710B500290AD00878E9
:10227000002807D005487844FFF7B6FF002801D0B2
:10228000002010BD0248784410BD00005600000038
:102290004E000000000500000018000020000000B3
:1022A0002000000000A0000000000300DC23000864
:1022B000000000209C0000006C0100087824000849
:1022C0009C000020FCB20000880100081001000002
:1022D00043000000F8FFFFFF004040404040404006
:1022E00040404141414141404040404040404040E9
:1022F000404040404040404040050202020202028D
:1023000002020202020202020220202020202020DB
:1023100020202002020202020202909090909090EF
:1023200010101010101010101010101010101010AD
:102330001010101002020202020288888888888821
:10234000080808080808080808080808080808080D
:102350000808080802020202400000000000000015
:10236000000000000000000000000000000000006D
:10237000000000000000000000000000000000005D
:10238000000000000000000000000000000000004D
:10239000000000000000000000000000000000003D
:1023A000000000000000000000000000000000002D
:1023B000000000000000000000000000000000001D
:1023C000000000000000000000000000000000000D
:1023D00000000000000000000000000010002000CD
:1023E0003000400050006000700080009000A000AD
:1023F000B000C000D000E0000000010002000000BA
:1024000000000000000000000000000000000000CC
:1024100000000000000000000000000000000000BC
:102420000000000000A24A040000000000000000BC
:102430000102030406070809CB0B0008010C000881
:10244000A401002000000068A4A10020000003688F
:10245000000000000000000000000000000000007C
:102460000000010203040102030406070809020434
:08247000060800000000000056
:0400000508000131BD
:00000001FF
